{
  "contractName": "RunMarketplace",
  "abi": [
    {
      "inputs": [
        {
          "internalType": "address",
          "name": "_runTokenAddress",
          "type": "address"
        }
      ],
      "stateMutability": "nonpayable",
      "type": "constructor"
    },
    {
      "inputs": [
        {
          "internalType": "address",
          "name": "owner",
          "type": "address"
        }
      ],
      "name": "OwnableInvalidOwner",
      "type": "error"
    },
    {
      "inputs": [
        {
          "internalType": "address",
          "name": "account",
          "type": "address"
        }
      ],
      "name": "OwnableUnauthorizedAccount",
      "type": "error"
    },
    {
      "inputs": [],
      "name": "ReentrancyGuardReentrantCall",
      "type": "error"
    },
    {
      "anonymous": false,
      "inputs": [
        {
          "indexed": true,
          "internalType": "uint256",
          "name": "id",
          "type": "uint256"
        },
        {
          "indexed": false,
          "internalType": "string",
          "name": "name",
          "type": "string"
        },
        {
          "indexed": false,
          "internalType": "uint256",
          "name": "price",
          "type": "uint256"
        },
        {
          "indexed": false,
          "internalType": "address",
          "name": "seller",
          "type": "address"
        }
      ],
      "name": "ItemListed",
      "type": "event"
    },
    {
      "anonymous": false,
      "inputs": [
        {
          "indexed": true,
          "internalType": "uint256",
          "name": "id",
          "type": "uint256"
        },
        {
          "indexed": false,
          "internalType": "address",
          "name": "buyer",
          "type": "address"
        },
        {
          "indexed": false,
          "internalType": "address",
          "name": "seller",
          "type": "address"
        },
        {
          "indexed": false,
          "internalType": "uint256",
          "name": "price",
          "type": "uint256"
        }
      ],
      "name": "ItemPurchased",
      "type": "event"
    },
    {
      "anonymous": false,
      "inputs": [
        {
          "indexed": true,
          "internalType": "address",
          "name": "previousOwner",
          "type": "address"
        },
        {
          "indexed": true,
          "internalType": "address",
          "name": "newOwner",
          "type": "address"
        }
      ],
      "name": "OwnershipTransferred",
      "type": "event"
    },
    {
      "inputs": [],
      "name": "itemCount",
      "outputs": [
        {
          "internalType": "uint256",
          "name": "",
          "type": "uint256"
        }
      ],
      "stateMutability": "view",
      "type": "function"
    },
    {
      "inputs": [
        {
          "internalType": "uint256",
          "name": "",
          "type": "uint256"
        }
      ],
      "name": "items",
      "outputs": [
        {
          "internalType": "uint256",
          "name": "id",
          "type": "uint256"
        },
        {
          "internalType": "string",
          "name": "name",
          "type": "string"
        },
        {
          "internalType": "uint256",
          "name": "price",
          "type": "uint256"
        },
        {
          "internalType": "address",
          "name": "seller",
          "type": "address"
        },
        {
          "internalType": "bool",
          "name": "isAvailable",
          "type": "bool"
        }
      ],
      "stateMutability": "view",
      "type": "function"
    },
    {
      "inputs": [],
      "name": "owner",
      "outputs": [
        {
          "internalType": "address",
          "name": "",
          "type": "address"
        }
      ],
      "stateMutability": "view",
      "type": "function"
    },
    {
      "inputs": [],
      "name": "renounceOwnership",
      "outputs": [],
      "stateMutability": "nonpayable",
      "type": "function"
    },
    {
      "inputs": [],
      "name": "runToken",
      "outputs": [
        {
          "internalType": "contract RunToken",
          "name": "",
          "type": "address"
        }
      ],
      "stateMutability": "view",
      "type": "function"
    },
    {
      "inputs": [
        {
          "internalType": "address",
          "name": "newOwner",
          "type": "address"
        }
      ],
      "name": "transferOwnership",
      "outputs": [],
      "stateMutability": "nonpayable",
      "type": "function"
    },
    {
      "inputs": [
        {
          "internalType": "string",
          "name": "name",
          "type": "string"
        },
        {
          "internalType": "uint256",
          "name": "price",
          "type": "uint256"
        }
      ],
      "name": "listItem",
      "outputs": [],
      "stateMutability": "nonpayable",
      "type": "function"
    },
    {
      "inputs": [
        {
          "internalType": "uint256",
          "name": "itemId",
          "type": "uint256"
        }
      ],
      "name": "purchaseItem",
      "outputs": [],
      "stateMutability": "nonpayable",
      "type": "function"
    }
  ],
  "bytecode": "0x608060405234801562000010575f80fd5b506040516200157638038062001576833981810160405281019062000036919062000230565b335f73ffffffffffffffffffffffffffffffffffffffff168173ffffffffffffffffffffffffffffffffffffffff1603620000aa575f6040517f1e4fbdf7000000000000000000000000000000000000000000000000000000008152600401620000a1919062000271565b60405180910390fd5b620000bb816200010a60201b60201c565b50600180819055508060025f6101000a81548173ffffffffffffffffffffffffffffffffffffffff021916908373ffffffffffffffffffffffffffffffffffffffff160217905550506200028c565b5f805f9054906101000a900473ffffffffffffffffffffffffffffffffffffffff169050815f806101000a81548173ffffffffffffffffffffffffffffffffffffffff021916908373ffffffffffffffffffffffffffffffffffffffff1602179055508173ffffffffffffffffffffffffffffffffffffffff168173ffffffffffffffffffffffffffffffffffffffff167f8be0079c531659141344cd1fd0a4f28419497f9722a3daafe3b4186f6b6457e060405160405180910390a35050565b5f80fd5b5f73ffffffffffffffffffffffffffffffffffffffff82169050919050565b5f620001fa82620001cf565b9050919050565b6200020c81620001ee565b811462000217575f80fd5b50565b5f815190506200022a8162000201565b92915050565b5f60208284031215620002485762000247620001cb565b5b5f62000257848285016200021a565b91505092915050565b6200026b81620001ee565b82525050565b5f602082019050620002865f83018462000260565b92915050565b6112dc806200029a5f395ff3fe608060405234801561000f575f80fd5b5060043610610086575f3560e01c80638da5cb5b116100595780638da5cb5b146100ec578063bfb231d21461010a578063d38ea5bf1461013e578063f2fde38b1461015a57610086565b806321acf4fe1461008a5780636bfb0d01146100a8578063715018a6146100c65780638511c937146100d0575b5f80fd5b610092610176565b60405161009f9190610975565b60405180910390f35b6100b061019b565b6040516100bd91906109a6565b60405180910390f35b6100ce6101a1565b005b6100ea60048036038101906100e59190610b36565b6101b4565b005b6100f46102f3565b6040516101019190610bb0565b60405180910390f35b610124600480360381019061011f9190610bc9565b61031a565b604051610135959493929190610c88565b60405180910390f35b61015860048036038101906101539190610bc9565b6103fe565b005b610174600480360381019061016f9190610d0a565b6106d9565b005b60025f9054906101000a900473ffffffffffffffffffffffffffffffffffffffff1681565b60045481565b6101a961075d565b6101b25f6107e4565b565b60045f8154809291906101c690610d62565b91905055506040518060a0016040528060045481526020018381526020018281526020013373ffffffffffffffffffffffffffffffffffffffff1681526020016001151581525060035f60045481526020019081526020015f205f820151815f0155602082015181600101908161023d9190610f9a565b50604082015181600201556060820151816003015f6101000a81548173ffffffffffffffffffffffffffffffffffffffff021916908373ffffffffffffffffffffffffffffffffffffffff16021790555060808201518160030160146101000a81548160ff0219169083151502179055509050506004547f16244e47af8a7d2c923faa2cab44315c0514c7aa830682bbb9cc8f0d37ad75488383336040516102e793929190611069565b60405180910390a25050565b5f805f9054906101000a900473ffffffffffffffffffffffffffffffffffffffff16905090565b6003602052805f5260405f205f91509050805f01549080600101805461033f90610dd6565b80601f016020809104026020016040519081016040528092919081815260200182805461036b90610dd6565b80156103b65780601f1061038d576101008083540402835291602001916103b6565b820191905f5260205f20905b81548152906001019060200180831161039957829003601f168201915b505050505090806002015490806003015f9054906101000a900473ffffffffffffffffffffffffffffffffffffffff16908060030160149054906101000a900460ff16905085565b6104066108a5565b5f60035f8381526020019081526020015f2090508060030160149054906101000a900460ff1661046b576040517f08c379a0000000000000000000000000000000000000000000000000000000008152600401610462906110ef565b60405180910390fd5b806002015460025f9054906101000a900473ffffffffffffffffffffffffffffffffffffffff1673ffffffffffffffffffffffffffffffffffffffff166370a08231336040518263ffffffff1660e01b81526004016104ca9190610bb0565b602060405180830381865afa1580156104e5573d5f803e3d5ffd5b505050506040513d601f19601f820116820180604052508101906105099190611121565b101561054a576040517f08c379a000000000000000000000000000000000000000000000000000000000815260040161054190611196565b60405180910390fd5b5f8160030160146101000a81548160ff02191690831515021790555060025f9054906101000a900473ffffffffffffffffffffffffffffffffffffffff1673ffffffffffffffffffffffffffffffffffffffff166323b872dd33836003015f9054906101000a900473ffffffffffffffffffffffffffffffffffffffff1684600201546040518463ffffffff1660e01b81526004016105eb939291906111b4565b6020604051808303815f875af1158015610607573d5f803e3d5ffd5b505050506040513d601f19601f8201168201806040525081019061062b9190611213565b61066a576040517f08c379a000000000000000000000000000000000000000000000000000000000815260040161066190611288565b60405180910390fd5b817f3e2a5a5ee3a24b1b9d330b0bc0946a7d0eb9c99f453f93a45348a9a8e29a94fb33836003015f9054906101000a900473ffffffffffffffffffffffffffffffffffffffff1684600201546040516106c5939291906111b4565b60405180910390a2506106d66108eb565b50565b6106e161075d565b5f73ffffffffffffffffffffffffffffffffffffffff168173ffffffffffffffffffffffffffffffffffffffff1603610751575f6040517f1e4fbdf70000000000000000000000000000000000000000000000000000000081526004016107489190610bb0565b60405180910390fd5b61075a816107e4565b50565b6107656108f4565b73ffffffffffffffffffffffffffffffffffffffff166107836102f3565b73ffffffffffffffffffffffffffffffffffffffff16146107e2576107a66108f4565b6040517f118cdaa70000000000000000000000000000000000000000000000000000000081526004016107d99190610bb0565b60405180910390fd5b565b5f805f9054906101000a900473ffffffffffffffffffffffffffffffffffffffff169050815f806101000a81548173ffffffffffffffffffffffffffffffffffffffff021916908373ffffffffffffffffffffffffffffffffffffffff1602179055508173ffffffffffffffffffffffffffffffffffffffff168173ffffffffffffffffffffffffffffffffffffffff167f8be0079c531659141344cd1fd0a4f28419497f9722a3daafe3b4186f6b6457e060405160405180910390a35050565b6002600154036108e1576040517f3ee5aeb500000000000000000000000000000000000000000000000000000000815260040160405180910390fd5b6002600181905550565b60018081905550565b5f33905090565b5f73ffffffffffffffffffffffffffffffffffffffff82169050919050565b5f819050919050565b5f61093d610938610933846108fb565b61091a565b6108fb565b9050919050565b5f61094e82610923565b9050919050565b5f61095f82610944565b9050919050565b61096f81610955565b82525050565b5f6020820190506109885f830184610966565b92915050565b5f819050919050565b6109a08161098e565b82525050565b5f6020820190506109b95f830184610997565b92915050565b5f604051905090565b5f80fd5b5f80fd5b5f80fd5b5f80fd5b5f601f19601f8301169050919050565b7f4e487b71000000000000000000000000000000000000000000000000000000005f52604160045260245ffd5b610a1e826109d8565b810181811067ffffffffffffffff82111715610a3d57610a3c6109e8565b5b80604052505050565b5f610a4f6109bf565b9050610a5b8282610a15565b919050565b5f67ffffffffffffffff821115610a7a57610a796109e8565b5b610a83826109d8565b9050602081019050919050565b828183375f83830152505050565b5f610ab0610aab84610a60565b610a46565b905082815260208101848484011115610acc57610acb6109d4565b5b610ad7848285610a90565b509392505050565b5f82601f830112610af357610af26109d0565b5b8135610b03848260208601610a9e565b91505092915050565b610b158161098e565b8114610b1f575f80fd5b50565b5f81359050610b3081610b0c565b92915050565b5f8060408385031215610b4c57610b4b6109c8565b5b5f83013567ffffffffffffffff811115610b6957610b686109cc565b5b610b7585828601610adf565b9250506020610b8685828601610b22565b9150509250929050565b5f610b9a826108fb565b9050919050565b610baa81610b90565b82525050565b5f602082019050610bc35f830184610ba1565b92915050565b5f60208284031215610bde57610bdd6109c8565b5b5f610beb84828501610b22565b91505092915050565b5f81519050919050565b5f82825260208201905092915050565b5f5b83811015610c2b578082015181840152602081019050610c10565b5f8484015250505050565b5f610c4082610bf4565b610c4a8185610bfe565b9350610c5a818560208601610c0e565b610c63816109d8565b840191505092915050565b5f8115159050919050565b610c8281610c6e565b82525050565b5f60a082019050610c9b5f830188610997565b8181036020830152610cad8187610c36565b9050610cbc6040830186610997565b610cc96060830185610ba1565b610cd66080830184610c79565b9695505050505050565b610ce981610b90565b8114610cf3575f80fd5b50565b5f81359050610d0481610ce0565b92915050565b5f60208284031215610d1f57610d1e6109c8565b5b5f610d2c84828501610cf6565b91505092915050565b7f4e487b71000000000000000000000000000000000000000000000000000000005f52601160045260245ffd5b5f610d6c8261098e565b91507fffffffffffffffffffffffffffffffffffffffffffffffffffffffffffffffff8203610d9e57610d9d610d35565b5b600182019050919050565b7f4e487b71000000000000000000000000000000000000000000000000000000005f52602260045260245ffd5b5f6002820490506001821680610ded57607f821691505b602082108103610e0057610dff610da9565b5b50919050565b5f819050815f5260205f209050919050565b5f6020601f8301049050919050565b5f82821b905092915050565b5f60088302610e627fffffffffffffffffffffffffffffffffffffffffffffffffffffffffffffffff82610e27565b610e6c8683610e27565b95508019841693508086168417925050509392505050565b5f610e9e610e99610e948461098e565b61091a565b61098e565b9050919050565b5f819050919050565b610eb783610e84565b610ecb610ec382610ea5565b848454610e33565b825550505050565b5f90565b610edf610ed3565b610eea818484610eae565b505050565b5b81811015610f0d57610f025f82610ed7565b600181019050610ef0565b5050565b601f821115610f5257610f2381610e06565b610f2c84610e18565b81016020851015610f3b578190505b610f4f610f4785610e18565b830182610eef565b50505b505050565b5f82821c905092915050565b5f610f725f1984600802610f57565b1980831691505092915050565b5f610f8a8383610f63565b9150826002028217905092915050565b610fa382610bf4565b67ffffffffffffffff811115610fbc57610fbb6109e8565b5b610fc68254610dd6565b610fd1828285610f11565b5f60209050601f831160018114611002575f8415610ff0578287015190505b610ffa8582610f7f565b865550611061565b601f19841661101086610e06565b5f5b8281101561103757848901518255600182019150602085019450602081019050611012565b868310156110545784890151611050601f891682610f63565b8355505b6001600288020188555050505b505050505050565b5f6060820190508181035f8301526110818186610c36565b90506110906020830185610997565b61109d6040830184610ba1565b949350505050565b7f4974656d206973206e6f7420617661696c61626c6500000000000000000000005f82015250565b5f6110d9601583610bfe565b91506110e4826110a5565b602082019050919050565b5f6020820190508181035f830152611106816110cd565b9050919050565b5f8151905061111b81610b0c565b92915050565b5f60208284031215611136576111356109c8565b5b5f6111438482850161110d565b91505092915050565b7f496e73756666696369656e742062616c616e63650000000000000000000000005f82015250565b5f611180601483610bfe565b915061118b8261114c565b602082019050919050565b5f6020820190508181035f8301526111ad81611174565b9050919050565b5f6060820190506111c75f830186610ba1565b6111d46020830185610ba1565b6111e16040830184610997565b949350505050565b6111f281610c6e565b81146111fc575f80fd5b50565b5f8151905061120d816111e9565b92915050565b5f60208284031215611228576112276109c8565b5b5f611235848285016111ff565b91505092915050565b7f5472616e73666572206661696c656400000000000000000000000000000000005f82015250565b5f611272600f83610bfe565b915061127d8261123e565b602082019050919050565b5f6020820190508181035f83015261129f81611266565b905091905056fea26469706673582212207e0ac9a43f2e90e9d49ac5cf31975eb334d50385bacd47c4171061102c0d0b6f64736f6c63430008140033",
  "immutableReferences": {},
  "source": "// SPDX-License-Identifier: MIT\r\npragma solidity ^0.8.20;\r\n\r\nimport \"@openzeppelin/contracts/token/ERC20/ERC20.sol\";\r\nimport \"@openzeppelin/contracts/access/Ownable.sol\";\r\nimport \"@openzeppelin/contracts/utils/ReentrancyGuard.sol\";\r\n\r\ncontract RunToken is ERC20, Ownable {\r\n    constructor(uint256 initialSupply) ERC20(\"RunToken\", \"RUN\") Ownable(msg.sender) {\r\n        _mint(msg.sender, initialSupply);\r\n    }\r\n\r\n    function mint(address to, uint256 amount) public onlyOwner {\r\n        _mint(to, amount);\r\n    }\r\n}\r\n\r\ncontract RunToEarn is Ownable, ReentrancyGuard {\r\n    RunToken public runToken;\r\n\r\n    struct User {\r\n        bool isRegistered;\r\n        uint256 lastActivityTimestamp;\r\n        uint256 totalDistance;\r\n        uint256 totalRewards;\r\n    }\r\n\r\n    mapping(address => User) public users;\r\n\r\n    uint256 public constant REWARD_PER_KM = 10**8;\r\n    uint256 public constant MIN_TIME_BETWEEN_ACTIVITIES = 10 seconds;\r\n\r\n    event UserRegistered(address indexed user);\r\n    event ActivityLogged(address indexed user, uint256 distance, uint256 rewards);\r\n\r\n    constructor(address _runTokenAddress) Ownable(msg.sender) {\r\n        runToken = RunToken(_runTokenAddress);\r\n    }\r\n\r\n    function registerUser() public {\r\n        require(!users[msg.sender].isRegistered, \"User already registered\");\r\n        users[msg.sender] = User(true, block.timestamp, 0, 0);\r\n        emit UserRegistered(msg.sender);\r\n    }\r\n\r\n    function logActivity(uint256 distance) public nonReentrant {\r\n        require(users[msg.sender].isRegistered, \"User not registered\");\r\n        require(block.timestamp - users[msg.sender].lastActivityTimestamp >= MIN_TIME_BETWEEN_ACTIVITIES, \"Too soon since last activity\");\r\n\r\n        uint256 reward = calculateReward(distance);\r\n\r\n        users[msg.sender].totalDistance += distance;\r\n        users[msg.sender].totalRewards += reward;\r\n        users[msg.sender].lastActivityTimestamp = block.timestamp;\r\n\r\n        emit ActivityLogged(msg.sender, distance, reward);\r\n    }\r\n\r\n    function collectRewards() public {\r\n        uint256 reward = users[msg.sender].totalRewards;\r\n\r\n        require(reward > 0, \"No rewards to collect\");\r\n\r\n        require(runToken.transfer(msg.sender, reward), \"Contract transfer failed\");\r\n\r\n        users[msg.sender].totalRewards = 0;\r\n    }\r\n\r\n    function checkRegister() public view returns (bool) {\r\n        return users[msg.sender].isRegistered;\r\n    }\r\n\r\n    // Adjust reward calculation to accept distance as a fixed-point value\r\n    function calculateReward(uint256 distance) public pure returns (uint256) {\r\n        return distance * REWARD_PER_KM / 10 ** 18;\r\n    }\r\n\r\n    function convertTotalDistanceToSteps() public view returns (uint256) {\r\n        uint256 avgStrideLength = 78 * 10 ** 15;\r\n\r\n        return (users[msg.sender].totalDistance * 10 ** 3) / avgStrideLength;\r\n    }\r\n\r\n    function calculateBurnedCalories(uint256 weight) public view returns (uint256) {\r\n        return users[msg.sender].totalDistance * weight / 2;\r\n    }\r\n\r\n    function getUserStats() public view returns (uint256, uint256, uint256) {\r\n        return (\r\n            users[msg.sender].lastActivityTimestamp,\r\n            users[msg.sender].totalDistance,\r\n            users[msg.sender].totalRewards\r\n        );\r\n    }\r\n\r\n    function getHealthStats(uint256 weight) public view returns (uint256, uint256, uint256) {\r\n        return (\r\n            users[msg.sender].totalDistance,\r\n            convertTotalDistanceToSteps(),\r\n            calculateBurnedCalories(weight)\r\n        );\r\n    }\r\n\r\n    function getBalance() public view returns (uint256) {\r\n        return runToken.balanceOf(msg.sender);\r\n    }\r\n}\r\n\r\ncontract RunMarketplace is Ownable, ReentrancyGuard {\r\n    RunToken public runToken;\r\n\r\n    struct Item {\r\n        uint256 id;\r\n        string name;\r\n        uint256 price;\r\n        address seller;\r\n        bool isAvailable;\r\n    }\r\n\r\n    mapping(uint256 => Item) public items;\r\n    uint256 public itemCount;\r\n\r\n    event ItemListed(uint256 indexed id, string name, uint256 price, address seller);\r\n    event ItemPurchased(uint256 indexed id, address buyer, address seller, uint256 price);\r\n\r\n    constructor(address _runTokenAddress) Ownable(msg.sender) {\r\n        runToken = RunToken(_runTokenAddress);\r\n    }\r\n\r\n    function listItem(string memory name, uint256 price) public {\r\n        itemCount++;\r\n        items[itemCount] = Item(itemCount, name, price, msg.sender, true);\r\n        emit ItemListed(itemCount, name, price, msg.sender);\r\n    }\r\n\r\n    function purchaseItem(uint256 itemId) public nonReentrant {\r\n        Item storage item = items[itemId];\r\n        require(item.isAvailable, \"Item is not available\");\r\n        require(runToken.balanceOf(msg.sender) >= item.price, \"Insufficient balance\");\r\n\r\n        item.isAvailable = false;\r\n        require(runToken.transferFrom(msg.sender, item.seller, item.price), \"Transfer failed\");\r\n\r\n        emit ItemPurchased(itemId, msg.sender, item.seller, item.price);\r\n    }\r\n}",
  "sourcePath": "C:\\Users\\Admin\\Desktop\\Projects\\bt_ass_3\\server\\contracts\\RunToEarn.sol",
  "compiler": {
    "name": "solc",
    "version": "0.8.20+commit.a1b79de6.Emscripten.clang"
  },
  "schemaVersion": "3.4.16",
  "updatedAt": "2024-11-06T11:04:35.382Z",
  "devdoc": {
    "errors": {
      "OwnableInvalidOwner(address)": [
        {
          "details": "The owner is not a valid owner account. (eg. `address(0)`)"
        }
      ],
      "OwnableUnauthorizedAccount(address)": [
        {
          "details": "The caller account is not authorized to perform an operation."
        }
      ],
      "ReentrancyGuardReentrantCall()": [
        {
          "details": "Unauthorized reentrant call."
        }
      ]
    },
    "kind": "dev",
    "methods": {
      "owner()": {
        "details": "Returns the address of the current owner."
      },
      "renounceOwnership()": {
        "details": "Leaves the contract without owner. It will not be possible to call `onlyOwner` functions. Can only be called by the current owner. NOTE: Renouncing ownership will leave the contract without an owner, thereby disabling any functionality that is only available to the owner."
      },
      "transferOwnership(address)": {
        "details": "Transfers ownership of the contract to a new account (`newOwner`). Can only be called by the current owner."
      }
    },
    "version": 1
  },
  "userdoc": {
    "kind": "user",
    "methods": {},
    "version": 1
  }
}