{
  "contractName": "RunToEarn",
  "abi": [
    {
      "inputs": [
        {
          "internalType": "address",
          "name": "_runTokenAddress",
          "type": "address"
        }
      ],
      "stateMutability": "nonpayable",
      "type": "constructor"
    },
    {
      "inputs": [
        {
          "internalType": "address",
          "name": "owner",
          "type": "address"
        }
      ],
      "name": "OwnableInvalidOwner",
      "type": "error"
    },
    {
      "inputs": [
        {
          "internalType": "address",
          "name": "account",
          "type": "address"
        }
      ],
      "name": "OwnableUnauthorizedAccount",
      "type": "error"
    },
    {
      "inputs": [],
      "name": "ReentrancyGuardReentrantCall",
      "type": "error"
    },
    {
      "anonymous": false,
      "inputs": [
        {
          "indexed": true,
          "internalType": "address",
          "name": "user",
          "type": "address"
        },
        {
          "indexed": false,
          "internalType": "uint256",
          "name": "distance",
          "type": "uint256"
        },
        {
          "indexed": false,
          "internalType": "uint256",
          "name": "rewards",
          "type": "uint256"
        }
      ],
      "name": "ActivityLogged",
      "type": "event"
    },
    {
      "anonymous": false,
      "inputs": [
        {
          "indexed": true,
          "internalType": "address",
          "name": "previousOwner",
          "type": "address"
        },
        {
          "indexed": true,
          "internalType": "address",
          "name": "newOwner",
          "type": "address"
        }
      ],
      "name": "OwnershipTransferred",
      "type": "event"
    },
    {
      "anonymous": false,
      "inputs": [
        {
          "indexed": true,
          "internalType": "address",
          "name": "user",
          "type": "address"
        }
      ],
      "name": "UserRegistered",
      "type": "event"
    },
    {
      "inputs": [],
      "name": "MIN_TIME_BETWEEN_ACTIVITIES",
      "outputs": [
        {
          "internalType": "uint256",
          "name": "",
          "type": "uint256"
        }
      ],
      "stateMutability": "view",
      "type": "function",
      "constant": true
    },
    {
      "inputs": [],
      "name": "REWARD_PER_KM",
      "outputs": [
        {
          "internalType": "uint256",
          "name": "",
          "type": "uint256"
        }
      ],
      "stateMutability": "view",
      "type": "function",
      "constant": true
    },
    {
      "inputs": [],
      "name": "owner",
      "outputs": [
        {
          "internalType": "address",
          "name": "",
          "type": "address"
        }
      ],
      "stateMutability": "view",
      "type": "function",
      "constant": true
    },
    {
      "inputs": [],
      "name": "renounceOwnership",
      "outputs": [],
      "stateMutability": "nonpayable",
      "type": "function"
    },
    {
      "inputs": [],
      "name": "runToken",
      "outputs": [
        {
          "internalType": "contract RunToken",
          "name": "",
          "type": "address"
        }
      ],
      "stateMutability": "view",
      "type": "function",
      "constant": true
    },
    {
      "inputs": [
        {
          "internalType": "address",
          "name": "newOwner",
          "type": "address"
        }
      ],
      "name": "transferOwnership",
      "outputs": [],
      "stateMutability": "nonpayable",
      "type": "function"
    },
    {
      "inputs": [
        {
          "internalType": "address",
          "name": "",
          "type": "address"
        }
      ],
      "name": "users",
      "outputs": [
        {
          "internalType": "bool",
          "name": "isRegistered",
          "type": "bool"
        },
        {
          "internalType": "uint256",
          "name": "lastActivityTimestamp",
          "type": "uint256"
        },
        {
          "internalType": "uint256",
          "name": "totalDistance",
          "type": "uint256"
        },
        {
          "internalType": "uint256",
          "name": "totalRewards",
          "type": "uint256"
        }
      ],
      "stateMutability": "view",
      "type": "function",
      "constant": true
    },
    {
      "inputs": [],
      "name": "registerUser",
      "outputs": [],
      "stateMutability": "nonpayable",
      "type": "function"
    },
    {
      "inputs": [
        {
          "internalType": "uint256",
          "name": "distance",
          "type": "uint256"
        }
      ],
      "name": "logActivity",
      "outputs": [],
      "stateMutability": "nonpayable",
      "type": "function"
    },
    {
      "inputs": [],
      "name": "collectRewards",
      "outputs": [],
      "stateMutability": "nonpayable",
      "type": "function"
    },
    {
      "inputs": [],
      "name": "checkRegister",
      "outputs": [
        {
          "internalType": "bool",
          "name": "",
          "type": "bool"
        }
      ],
      "stateMutability": "view",
      "type": "function",
      "constant": true
    },
    {
      "inputs": [
        {
          "internalType": "uint256",
          "name": "distance",
          "type": "uint256"
        }
      ],
      "name": "calculateReward",
      "outputs": [
        {
          "internalType": "uint256",
          "name": "",
          "type": "uint256"
        }
      ],
      "stateMutability": "pure",
      "type": "function",
      "constant": true
    },
    {
      "inputs": [],
      "name": "convertTotalDistanceToSteps",
      "outputs": [
        {
          "internalType": "uint256",
          "name": "",
          "type": "uint256"
        }
      ],
      "stateMutability": "view",
      "type": "function",
      "constant": true
    },
    {
      "inputs": [
        {
          "internalType": "uint256",
          "name": "weight",
          "type": "uint256"
        }
      ],
      "name": "calculateBurnedCalories",
      "outputs": [
        {
          "internalType": "uint256",
          "name": "",
          "type": "uint256"
        }
      ],
      "stateMutability": "view",
      "type": "function",
      "constant": true
    },
    {
      "inputs": [],
      "name": "getUserStats",
      "outputs": [
        {
          "internalType": "uint256",
          "name": "",
          "type": "uint256"
        },
        {
          "internalType": "uint256",
          "name": "",
          "type": "uint256"
        },
        {
          "internalType": "uint256",
          "name": "",
          "type": "uint256"
        }
      ],
      "stateMutability": "view",
      "type": "function",
      "constant": true
    },
    {
      "inputs": [
        {
          "internalType": "uint256",
          "name": "weight",
          "type": "uint256"
        }
      ],
      "name": "getHealthStats",
      "outputs": [
        {
          "internalType": "uint256",
          "name": "",
          "type": "uint256"
        },
        {
          "internalType": "uint256",
          "name": "",
          "type": "uint256"
        },
        {
          "internalType": "uint256",
          "name": "",
          "type": "uint256"
        }
      ],
      "stateMutability": "view",
      "type": "function",
      "constant": true
    },
    {
      "inputs": [],
      "name": "getBalance",
      "outputs": [
        {
          "internalType": "uint256",
          "name": "",
          "type": "uint256"
        }
      ],
      "stateMutability": "view",
      "type": "function",
      "constant": true
    }
  ],
  "bytecode": "0x608060405234801562000010575f80fd5b50604051620017e0380380620017e0833981810160405281019062000036919062000230565b335f73ffffffffffffffffffffffffffffffffffffffff168173ffffffffffffffffffffffffffffffffffffffff1603620000aa575f6040517f1e4fbdf7000000000000000000000000000000000000000000000000000000008152600401620000a1919062000271565b60405180910390fd5b620000bb816200010a60201b60201c565b50600180819055508060025f6101000a81548173ffffffffffffffffffffffffffffffffffffffff021916908373ffffffffffffffffffffffffffffffffffffffff160217905550506200028c565b5f805f9054906101000a900473ffffffffffffffffffffffffffffffffffffffff169050815f806101000a81548173ffffffffffffffffffffffffffffffffffffffff021916908373ffffffffffffffffffffffffffffffffffffffff1602179055508173ffffffffffffffffffffffffffffffffffffffff168173ffffffffffffffffffffffffffffffffffffffff167f8be0079c531659141344cd1fd0a4f28419497f9722a3daafe3b4186f6b6457e060405160405180910390a35050565b5f80fd5b5f73ffffffffffffffffffffffffffffffffffffffff82169050919050565b5f620001fa82620001cf565b9050919050565b6200020c81620001ee565b811462000217575f80fd5b50565b5f815190506200022a8162000201565b92915050565b5f60208284031215620002485762000247620001cb565b5b5f62000257848285016200021a565b91505092915050565b6200026b81620001ee565b82525050565b5f602082019050620002865f83018462000260565b92915050565b611546806200029a5f395ff3fe608060405234801561000f575f80fd5b5060043610610109575f3560e01c80638b9f5180116100a0578063ceabef371161006f578063ceabef3714610276578063d05410f114610294578063d2d7231f146102b2578063f2fde38b146102e2578063fc3f2890146102fe57610109565b80638b9f5180146101d75780638da5cb5b14610207578063a87430ba14610225578063bd0062f21461025857610109565b806353f6ad37116100dc57806353f6ad37146101855780635fa79b21146101a557806370bb45b3146101c3578063715018a6146101cd57610109565b8063041915ba1461010d57806312065fe01461013f57806321acf4fe1461015d5780634d3820eb1461017b575b5f80fd5b61012760048036038101906101229190610ec6565b61031a565b60405161013693929190610f00565b60405180910390f35b61014761037c565b6040516101549190610f35565b60405180910390f35b61016561041b565b6040516101729190610fc8565b60405180910390f35b610183610440565b005b61018d6105b0565b60405161019c93929190610f00565b60405180910390f35b6101ad610681565b6040516101ba9190610f35565b60405180910390f35b6101cb610686565b005b6101d561082f565b005b6101f160048036038101906101ec9190610ec6565b610842565b6040516101fe9190610f35565b60405180910390f35b61020f6108a2565b60405161021c9190611001565b60405180910390f35b61023f600480360381019061023a9190611044565b6108c9565b60405161024f9493929190611089565b60405180910390f35b610260610901565b60405161026d91906110cc565b60405180910390f35b61027e610953565b60405161028b9190610f35565b60405180910390f35b61029c6109bf565b6040516102a99190610f35565b60405180910390f35b6102cc60048036038101906102c79190610ec6565b6109c7565b6040516102d99190610f35565b60405180910390f35b6102fc60048036038101906102f79190611044565b6109f2565b005b61031860048036038101906103139190610ec6565b610a76565b005b5f805f60035f3373ffffffffffffffffffffffffffffffffffffffff1673ffffffffffffffffffffffffffffffffffffffff1681526020019081526020015f2060020154610366610953565b61036f86610842565b9250925092509193909250565b5f60025f9054906101000a900473ffffffffffffffffffffffffffffffffffffffff1673ffffffffffffffffffffffffffffffffffffffff166370a08231336040518263ffffffff1660e01b81526004016103d79190611001565b602060405180830381865afa1580156103f2573d5f803e3d5ffd5b505050506040513d601f19601f8201168201806040525081019061041691906110f9565b905090565b60025f9054906101000a900473ffffffffffffffffffffffffffffffffffffffff1681565b60035f3373ffffffffffffffffffffffffffffffffffffffff1673ffffffffffffffffffffffffffffffffffffffff1681526020019081526020015f205f015f9054906101000a900460ff16156104cc576040517f08c379a00000000000000000000000000000000000000000000000000000000081526004016104c39061117e565b60405180910390fd5b60405180608001604052806001151581526020014281526020015f81526020015f81525060035f3373ffffffffffffffffffffffffffffffffffffffff1673ffffffffffffffffffffffffffffffffffffffff1681526020019081526020015f205f820151815f015f6101000a81548160ff0219169083151502179055506020820151816001015560408201518160020155606082015181600301559050503373ffffffffffffffffffffffffffffffffffffffff167f54db7a5cb4735e1aac1f53db512d3390390bb6637bd30ad4bf9fc98667d9b9b960405160405180910390a2565b5f805f60035f3373ffffffffffffffffffffffffffffffffffffffff1673ffffffffffffffffffffffffffffffffffffffff1681526020019081526020015f206001015460035f3373ffffffffffffffffffffffffffffffffffffffff1673ffffffffffffffffffffffffffffffffffffffff1681526020019081526020015f206002015460035f3373ffffffffffffffffffffffffffffffffffffffff1673ffffffffffffffffffffffffffffffffffffffff1681526020019081526020015f2060030154925092509250909192565b600a81565b5f60035f3373ffffffffffffffffffffffffffffffffffffffff1673ffffffffffffffffffffffffffffffffffffffff1681526020019081526020015f206003015490505f811161070c576040517f08c379a0000000000000000000000000000000000000000000000000000000008152600401610703906111e6565b60405180910390fd5b60025f9054906101000a900473ffffffffffffffffffffffffffffffffffffffff1673ffffffffffffffffffffffffffffffffffffffff1663a9059cbb33836040518363ffffffff1660e01b8152600401610768929190611204565b6020604051808303815f875af1158015610784573d5f803e3d5ffd5b505050506040513d601f19601f820116820180604052508101906107a89190611255565b6107e7576040517f08c379a00000000000000000000000000000000000000000000000000000000081526004016107de906112ca565b60405180910390fd5b5f60035f3373ffffffffffffffffffffffffffffffffffffffff1673ffffffffffffffffffffffffffffffffffffffff1681526020019081526020015f206003018190555050565b610837610cf1565b6108405f610d78565b565b5f60028260035f3373ffffffffffffffffffffffffffffffffffffffff1673ffffffffffffffffffffffffffffffffffffffff1681526020019081526020015f20600201546108919190611315565b61089b9190611383565b9050919050565b5f805f9054906101000a900473ffffffffffffffffffffffffffffffffffffffff16905090565b6003602052805f5260405f205f91509050805f015f9054906101000a900460ff16908060010154908060020154908060030154905084565b5f60035f3373ffffffffffffffffffffffffffffffffffffffff1673ffffffffffffffffffffffffffffffffffffffff1681526020019081526020015f205f015f9054906101000a900460ff16905090565b5f806701151c96347b00009050806103e860035f3373ffffffffffffffffffffffffffffffffffffffff1673ffffffffffffffffffffffffffffffffffffffff1681526020019081526020015f20600201546109af9190611315565b6109b99190611383565b91505090565b6305f5e10081565b5f670de0b6b3a76400006305f5e100836109e19190611315565b6109eb9190611383565b9050919050565b6109fa610cf1565b5f73ffffffffffffffffffffffffffffffffffffffff168173ffffffffffffffffffffffffffffffffffffffff1603610a6a575f6040517f1e4fbdf7000000000000000000000000000000000000000000000000000000008152600401610a619190611001565b60405180910390fd5b610a7381610d78565b50565b610a7e610e39565b60035f3373ffffffffffffffffffffffffffffffffffffffff1673ffffffffffffffffffffffffffffffffffffffff1681526020019081526020015f205f015f9054906101000a900460ff16610b09576040517f08c379a0000000000000000000000000000000000000000000000000000000008152600401610b00906113fd565b60405180910390fd5b600a60035f3373ffffffffffffffffffffffffffffffffffffffff1673ffffffffffffffffffffffffffffffffffffffff1681526020019081526020015f206001015442610b57919061141b565b1015610b98576040517f08c379a0000000000000000000000000000000000000000000000000000000008152600401610b8f90611498565b60405180910390fd5b5f610ba2826109c7565b90508160035f3373ffffffffffffffffffffffffffffffffffffffff1673ffffffffffffffffffffffffffffffffffffffff1681526020019081526020015f206002015f828254610bf391906114b6565b925050819055508060035f3373ffffffffffffffffffffffffffffffffffffffff1673ffffffffffffffffffffffffffffffffffffffff1681526020019081526020015f206003015f828254610c4991906114b6565b925050819055504260035f3373ffffffffffffffffffffffffffffffffffffffff1673ffffffffffffffffffffffffffffffffffffffff1681526020019081526020015f20600101819055503373ffffffffffffffffffffffffffffffffffffffff167f4baaea5232ccb0e3a5e41041d3f8ae77e093f9768e9b9a15d87e8d8bbcf159e78383604051610cdd9291906114e9565b60405180910390a250610cee610e7f565b50565b610cf9610e88565b73ffffffffffffffffffffffffffffffffffffffff16610d176108a2565b73ffffffffffffffffffffffffffffffffffffffff1614610d7657610d3a610e88565b6040517f118cdaa7000000000000000000000000000000000000000000000000000000008152600401610d6d9190611001565b60405180910390fd5b565b5f805f9054906101000a900473ffffffffffffffffffffffffffffffffffffffff169050815f806101000a81548173ffffffffffffffffffffffffffffffffffffffff021916908373ffffffffffffffffffffffffffffffffffffffff1602179055508173ffffffffffffffffffffffffffffffffffffffff168173ffffffffffffffffffffffffffffffffffffffff167f8be0079c531659141344cd1fd0a4f28419497f9722a3daafe3b4186f6b6457e060405160405180910390a35050565b600260015403610e75576040517f3ee5aeb500000000000000000000000000000000000000000000000000000000815260040160405180910390fd5b6002600181905550565b60018081905550565b5f33905090565b5f80fd5b5f819050919050565b610ea581610e93565b8114610eaf575f80fd5b50565b5f81359050610ec081610e9c565b92915050565b5f60208284031215610edb57610eda610e8f565b5b5f610ee884828501610eb2565b91505092915050565b610efa81610e93565b82525050565b5f606082019050610f135f830186610ef1565b610f206020830185610ef1565b610f2d6040830184610ef1565b949350505050565b5f602082019050610f485f830184610ef1565b92915050565b5f73ffffffffffffffffffffffffffffffffffffffff82169050919050565b5f819050919050565b5f610f90610f8b610f8684610f4e565b610f6d565b610f4e565b9050919050565b5f610fa182610f76565b9050919050565b5f610fb282610f97565b9050919050565b610fc281610fa8565b82525050565b5f602082019050610fdb5f830184610fb9565b92915050565b5f610feb82610f4e565b9050919050565b610ffb81610fe1565b82525050565b5f6020820190506110145f830184610ff2565b92915050565b61102381610fe1565b811461102d575f80fd5b50565b5f8135905061103e8161101a565b92915050565b5f6020828403121561105957611058610e8f565b5b5f61106684828501611030565b91505092915050565b5f8115159050919050565b6110838161106f565b82525050565b5f60808201905061109c5f83018761107a565b6110a96020830186610ef1565b6110b66040830185610ef1565b6110c36060830184610ef1565b95945050505050565b5f6020820190506110df5f83018461107a565b92915050565b5f815190506110f381610e9c565b92915050565b5f6020828403121561110e5761110d610e8f565b5b5f61111b848285016110e5565b91505092915050565b5f82825260208201905092915050565b7f5573657220616c726561647920726567697374657265640000000000000000005f82015250565b5f611168601783611124565b915061117382611134565b602082019050919050565b5f6020820190508181035f8301526111958161115c565b9050919050565b7f4e6f207265776172647320746f20636f6c6c65637400000000000000000000005f82015250565b5f6111d0601583611124565b91506111db8261119c565b602082019050919050565b5f6020820190508181035f8301526111fd816111c4565b9050919050565b5f6040820190506112175f830185610ff2565b6112246020830184610ef1565b9392505050565b6112348161106f565b811461123e575f80fd5b50565b5f8151905061124f8161122b565b92915050565b5f6020828403121561126a57611269610e8f565b5b5f61127784828501611241565b91505092915050565b7f436f6e7472616374207472616e73666572206661696c656400000000000000005f82015250565b5f6112b4601883611124565b91506112bf82611280565b602082019050919050565b5f6020820190508181035f8301526112e1816112a8565b9050919050565b7f4e487b71000000000000000000000000000000000000000000000000000000005f52601160045260245ffd5b5f61131f82610e93565b915061132a83610e93565b925082820261133881610e93565b9150828204841483151761134f5761134e6112e8565b5b5092915050565b7f4e487b71000000000000000000000000000000000000000000000000000000005f52601260045260245ffd5b5f61138d82610e93565b915061139883610e93565b9250826113a8576113a7611356565b5b828204905092915050565b7f55736572206e6f742072656769737465726564000000000000000000000000005f82015250565b5f6113e7601383611124565b91506113f2826113b3565b602082019050919050565b5f6020820190508181035f830152611414816113db565b9050919050565b5f61142582610e93565b915061143083610e93565b9250828203905081811115611448576114476112e8565b5b92915050565b7f546f6f20736f6f6e2073696e6365206c617374206163746976697479000000005f82015250565b5f611482601c83611124565b915061148d8261144e565b602082019050919050565b5f6020820190508181035f8301526114af81611476565b9050919050565b5f6114c082610e93565b91506114cb83610e93565b92508282019050808211156114e3576114e26112e8565b5b92915050565b5f6040820190506114fc5f830185610ef1565b6115096020830184610ef1565b939250505056fea2646970667358221220e66fb6e6c31214f3042ffa4a08d3a94fe683b444f1a42330b347abe88ebee99764736f6c63430008140033",
  "immutableReferences": {},
  "source": "// SPDX-License-Identifier: MIT\r\npragma solidity ^0.8.20;\r\n\r\nimport \"@openzeppelin/contracts/token/ERC20/ERC20.sol\";\r\nimport \"@openzeppelin/contracts/access/Ownable.sol\";\r\nimport \"@openzeppelin/contracts/utils/ReentrancyGuard.sol\";\r\n\r\ncontract RunToken is ERC20, Ownable {\r\n    constructor(uint256 initialSupply) ERC20(\"RunToken\", \"RUN\") Ownable(msg.sender) {\r\n        _mint(msg.sender, initialSupply);\r\n    }\r\n\r\n    function mint(address to, uint256 amount) public onlyOwner {\r\n        _mint(to, amount);\r\n    }\r\n}\r\n\r\ncontract RunToEarn is Ownable, ReentrancyGuard {\r\n    RunToken public runToken;\r\n\r\n    struct User {\r\n        bool isRegistered;\r\n        uint256 lastActivityTimestamp;\r\n        uint256 totalDistance;\r\n        uint256 totalRewards;\r\n    }\r\n\r\n    mapping(address => User) public users;\r\n\r\n    uint256 public constant REWARD_PER_KM = 10**8;\r\n    uint256 public constant MIN_TIME_BETWEEN_ACTIVITIES = 10 seconds;\r\n\r\n    event UserRegistered(address indexed user);\r\n    event ActivityLogged(address indexed user, uint256 distance, uint256 rewards);\r\n\r\n    constructor(address _runTokenAddress) Ownable(msg.sender) {\r\n        runToken = RunToken(_runTokenAddress);\r\n    }\r\n\r\n    function registerUser() public {\r\n        require(!users[msg.sender].isRegistered, \"User already registered\");\r\n        users[msg.sender] = User(true, block.timestamp, 0, 0);\r\n        emit UserRegistered(msg.sender);\r\n    }\r\n\r\n    function logActivity(uint256 distance) public nonReentrant {\r\n        require(users[msg.sender].isRegistered, \"User not registered\");\r\n        require(block.timestamp - users[msg.sender].lastActivityTimestamp >= MIN_TIME_BETWEEN_ACTIVITIES, \"Too soon since last activity\");\r\n\r\n        uint256 reward = calculateReward(distance);\r\n\r\n        users[msg.sender].totalDistance += distance;\r\n        users[msg.sender].totalRewards += reward;\r\n        users[msg.sender].lastActivityTimestamp = block.timestamp;\r\n\r\n        emit ActivityLogged(msg.sender, distance, reward);\r\n    }\r\n\r\n    function collectRewards() public {\r\n        uint256 reward = users[msg.sender].totalRewards;\r\n\r\n        require(reward > 0, \"No rewards to collect\");\r\n\r\n        require(runToken.transfer(msg.sender, reward), \"Contract transfer failed\");\r\n\r\n        users[msg.sender].totalRewards = 0;\r\n    }\r\n\r\n    function checkRegister() public view returns (bool) {\r\n        return users[msg.sender].isRegistered;\r\n    }\r\n\r\n    // Adjust reward calculation to accept distance as a fixed-point value\r\n    function calculateReward(uint256 distance) public pure returns (uint256) {\r\n        return distance * REWARD_PER_KM / 10 ** 18;\r\n    }\r\n\r\n    function convertTotalDistanceToSteps() public view returns (uint256) {\r\n        uint256 avgStrideLength = 78 * 10 ** 15;\r\n\r\n        return (users[msg.sender].totalDistance * 10 ** 3) / avgStrideLength;\r\n    }\r\n\r\n    function calculateBurnedCalories(uint256 weight) public view returns (uint256) {\r\n        return users[msg.sender].totalDistance * weight / 2;\r\n    }\r\n\r\n    function getUserStats() public view returns (uint256, uint256, uint256) {\r\n        return (\r\n            users[msg.sender].lastActivityTimestamp,\r\n            users[msg.sender].totalDistance,\r\n            users[msg.sender].totalRewards\r\n        );\r\n    }\r\n\r\n    function getHealthStats(uint256 weight) public view returns (uint256, uint256, uint256) {\r\n        return (\r\n            users[msg.sender].totalDistance,\r\n            convertTotalDistanceToSteps(),\r\n            calculateBurnedCalories(weight)\r\n        );\r\n    }\r\n\r\n    function getBalance() public view returns (uint256) {\r\n        return runToken.balanceOf(msg.sender);\r\n    }\r\n}\r\n\r\ncontract RunMarketplace is Ownable, ReentrancyGuard {\r\n    RunToken public runToken;\r\n\r\n    struct Item {\r\n        uint256 id;\r\n        string name;\r\n        uint256 price;\r\n        address seller;\r\n        bool isAvailable;\r\n    }\r\n\r\n    mapping(uint256 => Item) public items;\r\n    uint256 public itemCount;\r\n\r\n    event ItemListed(uint256 indexed id, string name, uint256 price, address seller);\r\n    event ItemPurchased(uint256 indexed id, address buyer, address seller, uint256 price);\r\n\r\n    constructor(address _runTokenAddress) Ownable(msg.sender) {\r\n        runToken = RunToken(_runTokenAddress);\r\n    }\r\n\r\n    function listItem(string memory name, uint256 price) public {\r\n        itemCount++;\r\n        items[itemCount] = Item(itemCount, name, price, msg.sender, true);\r\n        emit ItemListed(itemCount, name, price, msg.sender);\r\n    }\r\n\r\n    function purchaseItem(uint256 itemId) public nonReentrant {\r\n        Item storage item = items[itemId];\r\n        require(item.isAvailable, \"Item is not available\");\r\n        require(runToken.balanceOf(msg.sender) >= item.price, \"Insufficient balance\");\r\n\r\n        item.isAvailable = false;\r\n        require(runToken.transferFrom(msg.sender, item.seller, item.price), \"Transfer failed\");\r\n\r\n        emit ItemPurchased(itemId, msg.sender, item.seller, item.price);\r\n    }\r\n}",
  "sourcePath": "C:\\Users\\Admin\\Desktop\\Projects\\bt_ass_3\\server\\contracts\\RunToEarn.sol",
  "compiler": {
    "name": "solc",
    "version": "0.8.20+commit.a1b79de6.Emscripten.clang"
  },
  "schemaVersion": "3.4.16",
  "updatedAt": "2024-11-06T11:04:38.842Z",
  "networkType": "ethereum",
  "devdoc": {
    "errors": {
      "OwnableInvalidOwner(address)": [
        {
          "details": "The owner is not a valid owner account. (eg. `address(0)`)"
        }
      ],
      "OwnableUnauthorizedAccount(address)": [
        {
          "details": "The caller account is not authorized to perform an operation."
        }
      ],
      "ReentrancyGuardReentrantCall()": [
        {
          "details": "Unauthorized reentrant call."
        }
      ]
    },
    "kind": "dev",
    "methods": {
      "owner()": {
        "details": "Returns the address of the current owner."
      },
      "renounceOwnership()": {
        "details": "Leaves the contract without owner. It will not be possible to call `onlyOwner` functions. Can only be called by the current owner. NOTE: Renouncing ownership will leave the contract without an owner, thereby disabling any functionality that is only available to the owner."
      },
      "transferOwnership(address)": {
        "details": "Transfers ownership of the contract to a new account (`newOwner`). Can only be called by the current owner."
      }
    },
    "version": 1
  },
  "userdoc": {
    "kind": "user",
    "methods": {},
    "version": 1
  }
}